:020000040001F9
:1080000000400020A5CC0100B7CC0100CD810100CB
:108010000000000000000000000000000000000060
:10802000000000000000000000000000BBCC0100C8
:108030000000000000000000BDCC0100BFCC01002A
:10804000C1CC0100C1CC0100B1AB0100C1CC010029
:1080500079E2010000000000C1CC0100C1CC0100A8
:10806000C1CC0100C1CC0100C1CC0100C1CC0100D8
:10807000C1CC0100C1CC0100C1CC0100C1CC0100C8
:10808000C1CC0100C1CC0100C7B00100C1CC0100CE
:10809000C1CC0100C1CC010027E50100C1CC010029
:1080A000C1CC0100C1CC01000000000000000000B4
:1080B00000000000000000000000000000000000C0
:1080C00000F002F800F038F80CA030C80838241886
:1080D0002D18A246671EAB4654465D46AC4201D100
:1080E00000F02AF87E460F3E0FCCB64601263342FA
:1080F00000D0FB1AA246AB46334318478C6B0000F6
:10810000AC6B00000023002400250026103A01D3A8
:1081100078C1FBD8520700D330C100D50B6070473F
:1081200010B5642902D106F08BFA10BD002010BDF5
:108130001FB51FBD10B510BD06F0E1FC1146FFF7DD
:10814000F7FF00F091F806F0F9FC03B4FFF7F2FF37
:1081500003BC06F0FFFC000070B505460C46164651
:1081600002E00FCC0FC5103E102EFAD2082E02D31B
:1081700003CC03C5083E042E07D301CC01C5361F2E
:1081800003E021782970641C6D1C761EF9D270BD45
:1081900010B508E0032205231B07072424021B193E
:1081A00084001A51401C8842F4D910BD01210220DC
:1081B00000F0B0F90021032000F0ACF972B600E045
:1081C00020BFFDE7FFF7F2FFFFF7F0FFFFF7EEFF3D
:1081D00010B50446204600F0E7FA204600F06AF9A0
:1081E00010BD10B504462078030006F0E5FC050636
:1081F00004051110140000BF00BFA088012800DD95
:108200000AE0A2681178207900F084F904E003E024
:1082100000F0D9F800E000BF00BF10BD10B5182174
:108220001520FFF7B5FF002007E0014615310122B8
:108230008A403F4B9A6000BF401C0428F5D32021A0
:108240000020FFF7A5FF0321112000F05FF80321B4
:10825000122000F05BF80321132000F057F80321EF
:10826000142000F053F810BD88B0FFF7D7FF00BF0F
:10827000002348222F49052006F00DF9044600BFCF
:108280002546002D05D000BF2BA2C3212846FFF7AD
:108290009BFF00BF00BF2B4806F033F92A4806F0C9
:1082A00039F902F06BFB02F06FFB2EE011241FE0A6
:1082B000204600F035F8002819D100BF204600F014
:1082C0002FF80028FAD0601CC507ED0F12380221E4
:1082D00008404608009530460122694600F0F7F94B
:1082E000002803D1E9B2F0B200F014F900BF641C19
:1082F000142CDDD901A800F09DFA002805D101A8B1
:10830000FFF76FFF01A800F0BDFACFE710B58A00B4
:1083100005231B07072424021B1984001A5110BDD2
:10832000014603480069C840C007C00F70470000FD
:10833000000500504C2100202E2E5C6D61696E2ED0
:1083400063000000D1810100C187010010B504461F
:10835000208850280BD0512802D0522808D100E0A4
:1083600007E0A08800231A461946A9DF01E000E0D3
:1083700000BF00BF10BD70B5044620881038030050
:1083800006F01AFC0906071E0A1E1E1E1D1C1E00F2
:1083900017E0534873DF14E000BFA0880023514A60
:1083A00019467FDF0546002D06D000BF4EA2722180
:1083B0002846FFF709FF00BF00BF02E001E000E030
:1083C00000BF00BF70BD70B596B00020159010A919
:1083D000087414A860DF0446002C0DD0082C0BD0C4
:1083E00000BF2646002E06D000BF3FA28F21304698
:1083F000FFF7EAFE00BF00BF062530213F4806F028
:108400002AFA3E48C57002203C4908703C48006882
:10841000139011A871DF044600BF2646002E06D037
:1084200000BF31A29F213046FFF7CEFE00BF00BF44
:1084300011A84079000211A989790843024631A1A7
:1084400001A806F0B3F801A806F084F986B2324616
:1084500001A913A87CDF044600BF2646002E06D0E3
:1084600000BF21A2A6213046FFF7AEFE00BF00BF2D
:108470000021224805F08CFD044600BF2646002E50
:1084800006D000BF18A2AA213046FFF79DFE00BF0C
:1084900000BF134873DF044600BF2646002E06D0F7
:1084A00000BF11A2AE213046FFF78EFE00BF00BF15
:1084B00016B070BD10B504462088F0210840102881
:1084C00002D0502808D103E02046FFF754FF04E013
:1084D0002046FFF73BFF00E000BF00BF10BD0000DB
:1084E00000200020182000202E2E5C6E72665F6136
:1084F00064765F636F6E6E2E63000000942100202F
:10850000ECEB01007262635F6D6573682023256484
:1085100000000000002906D10246153201239340D5
:10852000044A936005E00246153201239340014A54
:10853000D3607047000500500FB4FEB500210291D2
:1085400002A812DF6846007A002804D10220FEBC8F
:1085500008BC04B01847DE480078002801D0082085
:10856000F5E70A98052803D3DA490A98884201D921
:108570000720ECE704F039FB02F0BBFD03F044FAFE
:1085800008AD2979089801F0FBFD2B7C2A797D261E
:10859000F6000A9D75432846089902F09FFF04469D
:1085A000002C01D02046D2E70020019069460870D7
:1085B000684660DF0446002C03D0082C01D020461A
:1085C000C5E708AB19790A9A089801F090FB0446B0
:1085D000002C01D02046BAE70B9800F0E9FFBE4915
:1085E0000898086008A80079BC490870BC490A9836
:1085F00008600120B64908700820BA498860BA4866
:1086000008601C20486000204861084602F01AFCFF
:1086100001F08AF800209AE7AD480078704710B55D
:10862000AB480078022801D0082010BD01F07CF88A
:108630000120A74908700020F7E710B5A44800788A
:10864000012801D0082010BD00F0F4FF0220A0494D
:1086500008700020F7E710B50446A448844201DD05
:10866000102010BD204603F049F9FAE710B5044682
:108670009E48844201DD102010BD204603F053F9CE
:10868000FAE770B504460D4691480078002801D1FC
:10869000082070BD9548844201DD1020F9E7294685
:1086A000204603F07AF9F4E770B504460D46884891
:1086B0000078002801D1082070BD8C48844201DD7B
:1086C0001020F9E72946204603F0E4F8F4E770B5F6
:1086D00005460E4614467E480078002801D1082041
:1086E00070BD8248854201DD1020F9E7E2B23146D3
:1086F000284601F02CFBE2B23146284603F057F839
:10870000EEE770B504460D4616467848844201DD12
:10871000102070BD32462946204603F081F8F8E764
:1087200001466B480078002801D1082070476A484C
:10873000006808600020F9E70146654800780028D5
:1087400001D1082070476548007808700020F9E7DB
:1087500001465F480078002801D108207047604832
:10876000006808600020F9E770B504460D465F48D0
:10877000844201DD102070BD2946204603F023F914
:10878000F9E770B504460D465848844201DD1020D3
:1087900070BD2946204603F097F8F9E710B5044666
:1087A000204602F0CAFE10BD10B5044648480078C5
:1087B000002800D110BD204601F0EBFA00BFF9E718
:1087C00010B50446204600F0DCFD10BD70B504462F
:1087D0003F480078002801D1082070BD002C01D14D
:1087E0000E20FAE721463F4802F03DFB0546002DEA
:1087F0001ED1A06800281BD02078002807D00128AF
:1088000006D0022802D0042810D108E000BF00BF23
:10881000A068002802D0A06803F03CF907E0A06837
:10882000002802D0A06803F035F900E000BF00BFC7
:108830002846D2E710B5044625480078002801D123
:10884000082010BD2146274802F041FB002801D036
:108850000520F6E70020F4E710B504461C48007830
:10886000002801D1082010BD002C01D10E20FAE70C
:1088700021461C4802F094FB002801D00520F2E7B5
:108880000020F0E710B504462078002806D0012823
:1088900006D0022803D0042810D108E000BF00BF92
:1088A000A068002802D0A06803F021F907E0A068C2
:1088B000002802D0A06803F01AF900E000BF00BF52
:1088C00010BD10B50446204601F033FD10BD000078
:1088D0002020002060EA0000242000202820002022
:1088E0002C200020C4210020DC210020EFFF00000C
:1088F0000020D4490860401ED34988600120D34934
:1089000008610220D249087000BF00BF70477CB5E3
:10891000D04802F00DFB044622E06946CD4802F043
:108920003FFB00281AD168464079022816D1002161
:10893000C84802F0CCFAFFF7DBFF00BFC648006969
:108940000028FBD1C549C86064230022D24300211E
:10895000C34D00982D68A847641E00E002E000BFE8
:10896000012CDAD800BF7CBD0EB50A2805DC410019
:10897000091DB94A403A916015E0242805DC410000
:10898000891DB54A403A91600DE0B64B0ECB02937B
:10899000019200910146253989006A465158AE4A34
:1089A000403A916000BF4106490EAB4A51610EBD8D
:1089B00010B504461320A3490860A079FFF7D4FF3F
:1089C000A54940392068486008209F494860002038
:1089D000A249C860A4480068000E9F4940398862D7
:1089E000A14800680002000A0002086260790028BD
:1089F0000DD100BF00BF2079C862012093490860F3
:108A000093490870E07994494039C86015E000BF87
:108A100000BF954800689549884204D003208E49DC
:108A20004039086303E001208B4940390863012085
:108A30008649486000208649087010BD70B504461C
:108A40000D46164600208A49C8630120C8630020ED
:108A500081494039C86003200861022088602520D0
:108A60007D4948618E207C49403948628148C8610F
:108A70007D480068000E88627B4800680002000A9A
:108A8000000208620020C862012008637A48486139
:108A90007A4888617A488863FF20043048637948BF
:108AA000C86394206C4948606948007803280BD15A
:108AB00008206849886074480860082048600020E1
:108AC0004861084602F0BEF90220614908700020A2
:108AD0006249C8600120012181406C4A116000BFD9
:108AE00000BF012181406A4A116000BF69480460EB
:108AF0005B48056068480660564802F05DFA002849
:108B000003D064480068804706E000F00AFE0028B1
:108B100002D0012000F08DF870BD53490860704705
:108B200070B50446002C01D10E2070BD607900287C
:108B300004D12079012801DD1020F6E721464548BF
:108B400002F091F9002801D00420EEE7EFF3108045
:108B5000C507ED0F72B600F0E4FD002802D0012039
:108B600000F067F8002D00D162B60020DDE7FEB509
:108B70003A48C068002843D048480068002801D01F
:108B8000012000E0002002904448C5686426334874
:108B9000C069002805D000203049C8612E4880688F
:108BA000C6B200202D49C86069462A4802F08FF9F4
:108BB000044600BF2746002F07D000BF38A2FF2180
:108BC00048313846FFF700FB00BF00BF68464079D8
:108BD000012803D068464079022807D133462A4647
:108BE0001F4F029900983F68B84703E02A49009850
:108BF0000968884700BF00BF02201549087001E0DE
:108C0000FFF785FE12480078022803D0104800784C
:108C100003280DD101A90F4802F0C2F9002803D1A1
:108C200001A8FFF7C5FE02E01A480068804700BFB0
:108C3000FEBDC206D20E01219140144A803A116055
:108C40007047000000120040001300400010004078
:108C500030200020BC2200204015004000110040C0
:108C600038200020F0EB010040200020D6BE898E85
:108C7000C01F004000D6BE89060102002500030285
:108C80005B06000055555500D422002080E200E02C
:108C900000E100E0342000203C20002000140040CF
:108CA0002E2E5C2E2E5C2E2E5C7262635F6D6573C1
:108CB000685C7372635C726164696F5F636F6E742A
:108CC000726F6C2E6300000010B50023F94A840017
:108CD00013510246103201239340F74A5360F74A7A
:108CE00015239B01D2188300D15010BD10B500F0A0
:108CF00097FA0024F248007800280DD00021ED48B2
:108D0000C1600121ED48C164152189014018C06886
:108D1000EC490968441801E0EB48046800F088FA5F
:108D2000204610BD70B586B000248EE0E148A10059
:108D3000405800287ED00021DE48A200815000BFAC
:108D40000120A040E149097808400646002E05D1DF
:108D500000BFDFA26621FFF737FA00BF00BF012086
:108D6000A040DA4909788143D84801702046103084
:108D700001218140D0488160FFF7B8FF0546DC48FB
:108D8000005D0221084000281DD0A000D9490858E4
:108D90000321C903884206D3A000D64908580121FF
:108DA0004907884209D900BF102600BFC8A26D211B
:108DB0001020FFF709FA00BF00BFA000CD4A1158EC
:108DC000284688473FE0002069460871A000C9494D
:108DD00008580321C903884206D3A000C549085892
:108DE00001214907884209D900BF102600BFB8A257
:108DF00074211020FFF7E8F900BF00BFA000BD49B3
:108E000008580290039501A802F09DF9002819D096
:108E1000A000B9490858801DA100B74A5050A74A80
:108E200015239B01D218A300D258911DE0B2FFF781
:108E30004BFF00E008E00120A040A4490978084366
:108E4000A249087000BF00BF641C032C00D26DE76C
:108E500006B070BDF8B504460D4617461E46032CF5
:108E600001DB0720F8BDB007800FB04201D00A2017
:108E7000F8E700F0D5F9A0009E490F50A0009E49E8
:108E80000D509B4806550020A1009C4A50500120DF
:108E9000A0408E49097808438C49087088480078BA
:108EA000002810D087480068281A954A904203D9B4
:108EB00084480068401B02E082480068281A014686
:108EC0002046FFF701FF00F0B3F90020CAE7FFB525
:108ED00081B004460D461E460A9F032C02DB072084
:108EE00005B0F0BDB807800FB84201D00A20F7E7FF
:108EF00000F096F9A1007F4A03985050A0007E49E7
:108F00000D50A0007D490E500120A0406F49097806
:108F100008436E490870764807556948007800286C
:108F20002AD068480068281A754A904203D96548D3
:108F30000068401B02E063480068281A014620468A
:108F4000FFF7C2FE5B48A10041186E485122120192
:108F5000821820460830C00011506A48512109018A
:108F6000411820460830C0000818466020460830E6
:108F7000012181406448416000F05AF90020AFE7C8
:108F8000F8B504460F4616461D46032C01DB0720A4
:108F9000F8BDE807C00FA84201D00A20F8E700F0AA
:108FA0003FF9A00054490F50A00054490E505048BA
:108FB000055543480078002819D03E48A1004118C3
:108FC000504851221201821820460830C00011502A
:108FD0004C4851210901411820460830C0000818AA
:108FE000466020460830012181404748416000F03A
:108FF0001FF90020CCE710B50446032C01DB072045
:1090000010BDA0003D490858002806D00120A0400E
:109010002E4909780840002801D10520F0E700F02A
:10902000FFF8032C19DA0120A04028490978814370
:109030002648017000202E49085521480078002854
:109040000BD020461030012181401B488160204612
:109050000830012181402C48816000F0E9F80020AF
:10906000CEE730B585B005460024A6E0A000224931
:10907000085814490968401A2149884206D9A000B5
:109080001D4908580F490968081A05E0A0001A4947
:1090900008580C490968401A29467831094A12686B
:1090A000891A174A914231D906490968491B783112
:1090B00031E000004081004000830040008000401B
:1090C00050200020482000204C2000204420002078
:1090D0002E2E5C2E2E5C2E2E5C7262635F6D65738D
:1090E000685C7372635C74696D65722E6300000066
:1090F00045200020142300202C23002020230020C2
:10910000FFFFFF7F00F0014000F501402946783164
:109110004A4A1268891A884233D20120A04048493D
:109120000978084000281ED00120A0404449097851
:109130008143434801704348005D022108400028F4
:1091400005D0A000404A1158284688470BE000206F
:1091500069460870A0003C4908580190029568468D
:1091600001F0F1FF00BFA00038490858002823D0C3
:109170000120A100354A515808600020A10050503C
:109180001AE00120A0402E4909780840002813D099
:10919000A2002F4B9A58521B2E4B9A4204D9A20080
:1091A0002B4B9A58AA1A03E0A200294B9A58521B3B
:1091B0001146E0B2FFF788FD641C032C00D255E78E
:1091C000082001218140244A116000BF1B4805602E
:1091D00001202249087005B030BD10B501460020BD
:1091E00016E0184A125CD207D20F002A0FD00122D3
:1091F0008240134B1B789343114A13700022114B8A
:109200001A548300104CE2508300104CE250401C72
:109210000328E6D3124801600020104A107010BDE8
:10922000EFF31080C007C00F72B60E490860704798
:109230000C480068002800D162B670474820002022
:10924000442000204520002014230020202300205B
:109250002C230020FFFFFF7F00E100E050200020D2
:109260004C2000205420002010B5FE490968FE4A19
:10927000126851430846FD4905F008FB7D21C900ED
:10928000401810BD10B50446F9480078002807D0F2
:10929000F84884600320F8490870F648486001E007
:1092A000F44850DFEF48046010BDF1490978002907
:1092B0000DD0EC4909680918F04A914202D9E949F0
:1092C0000968501A0121EC4A117011464860704734
:1092D000F0B585B0EA4844680025EA4800680028EF
:1092E00001D1E94830C0E84903C92A46201A8A4119
:1092F0000AD2E548E549036842680020C91A90414E
:109300000E1907466F4105E02846DF4A06CA661A6D
:1093100090410746D54900206A4683C203963046ED
:109320003946009B019A05F029F94904C00B08430E
:10933000D74909684018D6490860D34830C005B0FD
:10934000F0BDD4480078002800D17047C5480068B7
:10935000CF4909684018F8E710B5FFF7C9FAFFF7D9
:10936000F0FF0446FFF739FF0020CA490870C049E2
:109370000870C94908700420C849C8608020C860C6
:1093800010BD70B50446201F030005F015FC050D47
:109390001C11040C2000C2480078012802D0C148EA
:1093A000FFF770FF14E013E0BF48FFF76BFF0FE01B
:1093B00000BF002500BFBDA2D0210020FEF704FFA2
:1093C00000BF00BF04E0B748FFF75CFF00E000BF4C
:1093D00000BF70BD0121B04A11707047AC480068F1
:1093E000704770B504468020AC4988600120A049D0
:1093F0000870AB480078012802D0022814D109E097
:1094000002209D49087000209E490860FFF7A4FFD4
:10941000994870BDA348FFF735FFFFF79DFF002077
:109420009F4908709448F4E700BF00BF00209249AC
:109430000870230005F0C0FB05043D3A814091000F
:1094400004209649886001209249087000209249C2
:1094500008709F490860FFF73BFF01F0A0FE8C48B1
:109460000068FFF7FEFD00F096FE8E4899490860FF
:10947000FFF7B4FF7B4909684618FFF7F5FE351A78
:109480000323954A29460020FFF7E4FC9148006831
:10949000FFF70BFF7B480068401C7A4908600028F2
:1094A00003D108460068401C086062E0FFF75FFBDC
:1094B0005FE0FFF737FC5CE06A48006887490968AD
:1094C00040186849086000208449086080480068A6
:1094D000401C7F4908600020FFF78DFDFFF77EFFED
:1094E000604909684618FFF7BFFE351A03237A4A18
:1094F00029460020FFF7AEFC00205F490870614854
:10950000006801280CD15748006872490968401862
:109510006449884210D26F480068FFF7C6FE0BE02E
:10952000504800686B49096840185449884203D282
:1095300068480068FFF7B9FE1BE06648006840080D
:1095400064490860084600687D21C900884203D943
:1095500060480068FFF7A9FE0BE000BF002500BFD0
:1095600052A2FF214F310020FEF72EFE00BF00BFA8
:1095700000BF00BF48480078002805D04948FFF7E1
:1095800081FEFFF7E9FE0BE03B480078012804D19B
:10959000394840685149086002E000204F4908609E
:1095A00000203349087080203C49C860324830E7C9
:1095B00000B501464A480078002801D0082000BDC7
:1095C0000B0005F0F9FA09271A120A06231F160ED6
:1095D00027006420244A106020E09620224A106070
:1095E0001CE01420204A106018E0FA201E4A106087
:1095F00014E01E201C4A106010E0FF20F5301A4ACB
:1096000010600BE03220184A106007E04B20164A29
:10961000106003E0FA20144A106000BF00BF002071
:10962000134A107001202E4A10701E480D4A106017
:109630000020C4E770B500BF4FDF0546002D07D0FE
:1096400000BF1AA2FF219B312846FEF7BDFD00BFD7
:1096500000BF012012490870EFF31080C407E40F27
:1096600072B63FE0702000208420002040420F00AE
:109670007C2000205820002068200020A0860100C7
:1096800000B500408820002090200020FFFFFF0050
:10969000742000207D2000207F2000200005005045
:1096A0008020002010270000701700002E2E5C2E56
:1096B0002E5C2E2E5C7262635F6D6573685C7372E4
:1096C000635C74696D65736C6F742E6300000000D9
:1096D0009C20002078200020D593010098200020B5
:1096E0007E20002034480078002802D0012000F0BD
:1096F0005CF8002C00D162B670BD10B502202F4975
:109700000870EFF31080C407E40F72B62A4800789F
:10971000002802D0012000F048F8002C00D162B6E9
:1097200010BD25480078704710B500BF24484EDFB3
:109730000446002C07D000BF224AFF21B931204641
:10974000FEF742FD00BF00BF00201C490870FFF774
:10975000E8FF002801D0082010BD1B48FFF792FD4C
:109760000020F9E710B514480078002800D110BD9A
:10977000FFF7BCFA15490968154A12688918081AD2
:109780001449884208D9FFF7B1FA10490968104A0C
:1097900012688918401AEAE7FFF7A8FA0B49096826
:1097A0000B4A12688918081AE1E7C206D20E012195
:1097B0009140094A116070477D20002080200020E0
:1097C000E3930100AC9601001027000070200020F8
:1097D00074200020FFFFFF7F00E200E00146087BCD
:1097E000FF2801D0012070470020FCE770B5044637
:1097F0002046FFF7F3FF00280ED000202073201D25
:1098000005F02BF806462046083005F026F83518F6
:10981000211D284605F032F870BDFEB504460D4600
:109820007A480068281A7A49884201D97748056839
:1098300076480560774802F0A5FA01902046083086
:1098400005F00BF84608201D05F007F8871931468A
:10985000019805F01BF878182146009005F00EF8E5
:10986000FEBD70B504460D46201D04F0F6FF281A13
:10987000674988422FD82046FFF7B0FF00282AD03A
:109880002046083004F0E9FF63490968634A12681A
:10989000514388420AD22046083004F0DEFF4600D9
:1098A00021460831304604F0E9FF09E05A490968C9
:1098B0005A4A1268514308462146083104F0DEFF37
:1098C000002020732046083004F0C7FF4619211DF0
:1098D000304604F0D3FF70BD70B506460C46154601
:1098E0004E4806604C4804604D480570494802F0F7
:1098F00089FA70BD70B504460D462046FFF76EFF2D
:10990000002812D008204749886000BF00BF082007
:109910004449C86029462046FFF7A3FF207B401C2E
:10992000FF2802D0207B401C207370BD70B5044618
:109930000D46211D284604F0A1FF21460831374875
:10994000006804F09BFF29462046FFF766FF20468B
:10995000FFF74CFF70BD70B504460D46102031492D
:10996000886000BF00BF10202E49C8602046083024
:1099700004F073FF29490968884203D92946204623
:10998000FFF7D4FF70BD70B505460C46281D04F0E6
:1099900064FF001B1E49884203D9291D204604F09C
:1099A0006DFF21462846FFF738FF70BD70B50546AC
:1099B0000C4616462846FFF711FF002801D12070FB
:1099C00013E0287B16490978884201DA012000E07B
:1099D0000020207031462846FFF743FF20780028FA
:1099E00003D131462846FFF718FF70BDFF210173F0
:1099F000704710B50446207BFF2805D10020207356
:109A000000212046FFF792FF10BD0000AC2000208F
:109A1000FFFFFF7F38230020A4200020A02000208B
:109A2000A82000200005005010B586B00446FE486E
:109A30000088FE49884202D1FD4806B010BDFD48AD
:109A40008078002802D1FA48401EF6E705A862DFB8
:109A5000002801D01120F0E76846007D002802D1DF
:109A6000F348801CE9E7F348818968468180012139
:109A7000817100210181207802280FD004DC0028A8
:109A800007D0012811D108E011280BD012280CD1E1
:109A900005E0E078001D00900AE000BF00BF05204F
:109AA000009005E00320009002E00120009000BF3C
:109AB00000BF68460390049401A9DB480088A6DF34
:109AC000BBE730B587B004460D46112168460170EA
:109AD00044708570FFF7A8FF07B030BD30B593B074
:109AE00004460020129000BF10A8007A0109090165
:109AF000491C10A80172007AF0218843103010A987
:109B0000087200BF00BF10A8407A01090901491C72
:109B100010A84172407AF0218843103010A9487291
:109B200000BF10A8807A06218843811C10A881728A
:109B30001C210BA804F08FFE08A8007B022188439B
:109B4000811C08A80173007B10218843411808A8D4
:109B5000017300200E9012A8109000200C900F901E
:109B60000A9008A8007AF02188430146103108A81D
:109B70000172007A01090901491C08A80172407AA2
:109B8000F02188430146103108A84172407A01094A
:109B90000901491C08A84172807A082188430146BE
:109BA00008A88172807A10218843014608A8817232
:109BB000807A4108490008A88172807A062188438A
:109BC000811C08A881729C48017808A88171042131
:109BD000684681842068069060680790217A08A80A
:109BE0000170142101A804F036FE09216846818124
:109BF0000021C1810921018209A8019006A80590D0
:109C00000AA802908B4908880B1D01AA0BA9A2DFA4
:109C10000546002D02D0032013B030BD0020FBE725
:109C200010B590B01C2109A804F015FE08A8007911
:109C300004218843011D08A801710079102188437F
:109C4000411808A8017100200E900F900A900D9005
:109C5000089008A84078F02188430146103108A8F0
:109C60004170407801090901491C08A841708078B9
:109C700006218843811C08A88170807808218843C8
:109C8000014608A88170807810218843014608A801
:109C90008170807841084900491C08A88170664895
:109CA0000178684681770521818300210191142183
:109CB00002A804F0D0FD0121684601820021418202
:109CC0001B21818208A8039007A8029001A8069092
:109CD000584908880B460C3302AA09A9A2DF04469A
:109CE000002C02D0032010B010BD0020FBE7F0B51F
:109CF00085B005460E4617460195029768460673DD
:109D0000012181704D4901804A4A69460120A0DF46
:109D10000446002C02D0032005B0F0BD4649484857
:109D200063DF0446002C01D02046F5E701A8FFF7C9
:109D3000D5FE0446002C01D02046EDE7FFF770FF6A
:109D40000446002C01D02046E6E70020E4E770B589
:109D500088B005460E461446172C02DD092008B0CF
:109D600070BD314800883149884210D000216846D2
:109D700001714571290A817101A8C47022463146DA
:109D800002A804F009FD01A8FFF74EFEE7E7284806
:109D9000E5E7F0B589B005462888502876D1E888EF
:109DA00024498989884272D12C46203420780028A1
:109DB00004D0012850D002286AD19FE0A1786278AF
:109DC000080210431949884204D12078F221FFF794
:109DD00078FEFBE0E278A3786778190239430846F9
:109DE000211D01F0E4FC0646002E30D169460872C0
:109DF000201D0490E17802A80173A178627808021E
:109E0000104369468881012102A8C182FEF76EFFD6
:109E1000089002A8FEF7DAFC002813D02078F02181
:109E2000FFF74FFE12E00000B2200020FFFF00000D
:109E30000230000048230020B0200020E4FE000093
:109E4000FCEB010020788021FFF73BFE03E0207847
:109E5000F021FFF736FEB9E0E078002802D00128B3
:109E600045D11BE02279002A01D0012200E0002226
:109E70001146A37866781802304301F08EFD002861
:109E800007D02078F221FFF71CFE35E0BEE09FE00E
:109E900097E020788021FFF714FE2DE0207900283C
:109EA00012D0A278637811021943084601F026FD0A
:109EB000002804D02078F221FFF703FE1CE0207870
:109EC0008021FFF7FEFD11E0A278637811021943AB
:109ED000084601F028FD002804D02078F221FFF781
:109EE000F0FD09E020788021FFF7EBFD04E0207809
:109EF000F321FFF7E6FD00BF00BF67E0E078002830
:109F000002D0012856D131E0A178627808021043CE
:109F10004649884204D12078F221FFF7D2FD4EE075
:109F200000200890A278637811021943084608A916
:109F300001F049FD002804D02078F121FFF7C1FD90
:109F40003DE0122168460171A17860780902014361
:109F500068464171090A8171E17801A8C17008A8B9
:109F6000017801A80171FFF75FFD28E0A27863780E
:109F700011021943084608A901F0EEFC002804D09C
:109F80002078F221FFF79DFD19E01221684601714A
:109F9000A17860780902014368464171090A81711C
:109FA000E17801A8C17008A8017801A80171FFF744
:109FB0003BFD04E02078F321FFF783FD00BF00BFE5
:109FC00004E02078F421FFF77CFD00BF00BF2BE008
:109FD000E88817498988884209D12C462034217A9B
:109FE000206800F0BFF8606801F0A1FA1CE0E98881
:109FF0000F48008A814217D12020405D002801D0FF
:10A00000012000E000200A4988700DE0288810280F
:10A0100003D1A8880749088006E02888112803D1C1
:10A020000020C0430349088009B0F0BDFFFF0000D5
:10A0300048230020B22000201CB50221684641714F
:10A04000BD4801796846817101F0E7FC002800D124
:10A050001CBD6846FEF764FD002802D0009801F0A0
:10A0600046FD00BFF4E7F0B585B004460D46164640
:10A070001F46002D18D06078252815DC032069467E
:10A08000087001940296FEF731FE0390684607744B
:10A0900001F059F8002803D00120A749487102E0D7
:10A0A000204601F0F7FC00E000BF204601F01FFD54
:10A0B00005B0F0BD70B588B005462E46304601F0BB
:10A0C000ADFD044600200090002C27D06179227954
:10A0D000090211430846694601F0F6FB00281DD12C
:10A0E00068460078002819D0042069460871607914
:10A0F0002179000208436946088120460830039010
:10A100002078C01FC1B201A80173FEF7EFFD0590D2
:10A1100001A8FEF75BFB01A800F061FC304601F0EE
:10A12000E6FC08B070BD10B586B004461422834921
:10A1300001A8FEF711F8039401A801F004F8002823
:10A1400002D1204601F0A6FC204601F0D0FC06B06A
:10A1500010BD10B578484079002801D1FFF76CFF99
:10A1600010BD704770B505460C46282C07DA7248BA
:10A17000056004712846FEF7D0FCFFF7BEFA70BDFB
:10A1800070B504460D4600206D49086029462046FA
:10A19000FFF7E8FF70BD10B56A4A6B496B48FEF7E0
:10A1A0004DFC10BD7CB504460D4601206849886011
:10A1B00000BF00BF01206649C860002000900190E8
:10A1C00020783021884320702078802188432070B7
:10A1D0000020A07000942978684601716978817127
:10A1E00000214171E978C17100261EE0A8780121A3
:10A1F000B140084000280CD0204601F04BFC6846D6
:10A20000FEF78EFC002809D0204601F070FC0420E7
:10A210007CBDA8783041002800D108E068468079EC
:10A22000401CC1B268468171761C202EDED300BF6F
:10A230000020EDE7FFB58BB00646154600BF002EA7
:10A2400001D0012000E0002007900798002806D1E7
:10A2500000BF40A2FF211831FDF7B6FF00BF00BFCD
:10A2600020203B49886034466078252806DD202080
:10A27000C860204601F03BFC0FB0F0BD30480068DC
:10A28000002823D069460E980872204609300390B2
:10A290006078801FC1B2684641720622E11C401CF2
:10A2A00004F07AFA20784006C10F684601700C98D5
:10A2B000049020780107090F6846C17100200695B7
:10A2C000079068461E490968884700BF0622E11CBE
:10A2D00008A8013004F060FA20784006C00F08A9F1
:10A2E0000870204601F09AFC0746002F10D07879BC
:10A2F0003979000208432249884205DC2946204674
:10A300000E9A01F01DF903E029463846FFF729FFB0
:10A31000204601F0ECFB08484079002804D0FFF704
:10A320008BFE00200449487120200949C86000BF05
:10A33000A2E7034908607047B42000200CEC01003C
:10A34000BC20002027A1010067A0010053A101004B
:10A35000000500502E2E5C2E2E5C2E2E5C72626349
:10A360005F6D6573685C7372635C7472616E737049
:10A370006F72745F636F6E74726F6C2E6300000097
:10A38000EFFF00000146072912D008DC00290DD09C
:10A39000022913D0052915D0062917D10CE0082968
:10A3A00008D009290CD0112910D10DE000207047E8
:10A3B0008520FCE78320FAE78220F8E78620F6E78D
:10A3C0008420F4E79020F2E78620F0E78020EEE793
:10A3D000F0B595B00446FAA1002002F03AFF2646F7
:10A3E000002705E0F25DFAA1002002F032FF7F1C99
:10A3F0002078B842F6D2F9A1002002F02AFF607856
:10A4000076287AD012DC722878D008DC022817D09F
:10A410000E282CD0702832D0712870D198E0732883
:10A420006ED074286ED07528F7D17EE0773803009F
:10A4300004F0C2FB09FBFA65F9F8F7F665F565006B
:10A44000822108A84175217801752078012806DD50
:10A450002078421EA11C0DA8023004F09DF9E1A154
:10A46000002002F0F6FE0DA800F038FB83E200F0B9
:10A4700038FCE3483EDF012044DF35DF7BE2842106
:10A4800008A84175617881750321017520780A2833
:10A4900004D084210DA8C170092519E0A01C04F086
:10A4A000DCF90190A07A69460872A01D04F0D5F984
:10A4B0000390012004900598009001A80FC8FEF7B2
:10A4C0003BF805462846FFF75DFF0DA9C87000BFA1
:10A4D000002D0ED11C2106A804F0BDF90320694609
:10A4E000087606A8FEF772F90746FFF74BFF0DA99D
:10A4F000C8700DA800F0F2FA3DE295E181E029E292
:10A50000A5E0FFE7842108A84175617881750321E2
:10A510000175FEF784F805462846FFF733FF0DA9BD
:10A52000C8700DA800F0DAFA25E2842108A8417568
:10A530006178817503210175FEF77FF8054628468D
:10A54000FFF720FF0DA9C8700DA800F0C7FA12E2AE
:10A55000842108A84175617881750321017505A8DA
:10A5600001F05BFA002843D02078C01EC7B22078E3
:10A570001A2804D984210DA8C17009250EE0E178BC
:10A58000A2780902114308463A46211DFEF79FF8BA
:10A5900005462846FFF7F6FE0DA9C870002D26D106
:10A5A0003A46211D0598093004F0F6F81C2106A84A
:10A5B00004F051F9002069460876059809300890A2
:10A5C00006A80773E078A1780002084369468883EB
:10A5D000FEF78CFB0C9006A8FEF7F8F805460598E8
:10A5E00001F085FA2846FFF7CDFE0DA9C87004E0FA
:10A5F0001120FFF7C7FE0DA9C8700DA800F06EFA74
:10A60000B9E1842108A8417561788175032101753C
:10A61000207803280AD084210DA8C17013E0C1E07E
:10A62000A0E07FE063E031E07DE138E1E178A2780D
:10A63000090211430846FEF70EF805462846FFF7C3
:10A64000A1FE0DA9C8700DA800F048FA93E184217D
:10A6500008A8417561788175032101752078032868
:10A6600003D084210DA8C1700CE0E178A278090222
:10A6700011430846FDF7FAFF05462846FFF782FE1C
:10A680000DA9C8700DA800F029FA74E1842108A86A
:10A69000417561788175172101752078032803D0F1
:10A6A00084210DA8C1701BE0E178A2780902114352
:10A6B00008460DAA911DFEF724F807463846FFF715
:10A6C00061FE0DA9C870E078A178000208430DA9C9
:10A6D000888008A8007D401DC1B208A8017500BF90
:10A6E000842008A948750DA800F0F8F943E18421F9
:10A6F00008A84175617881750621017520780128C7
:10A7000003D084210DA8C17008E000210DA80171BB
:10A7100008214171052181710021C1700DA800F04F
:10A72000DDF928E1842108A8417561788175072148
:10A7300001752078012803D084210DA8C1700DE097
:10A7400005A8FDF7EDFF05460EA9059804F096F85B
:10A750002846FFF717FE0DA9C87000BF0DA800F02E
:10A76000BDF908E1842108A841756178817504214B
:10A7700001752078012803D084210DA8C1700DE057
:10A7800005A8FDF7D9FF07466846017D0DA80171B0
:10A790003846FFF7F7FD0DA9C87000BF0DA800F0FF
:10A7A0009DF9E8E0842108A8417561788175072149
:10A7B00001752078012825D084210DA8C1702FE0D3
:10A7C0001B5B306D53657269616C2052583A2000F2
:10A7D0001B5B306D25303278000000001B5B306D54
:10A7E0000A0000001B5B306D4563686F2E205265C8
:10A7F00073706F6E64696E672E2E2E0A0000000063
:10A800000F000F0005A8FDF7A3FF05460EA9059848
:10A8100004F034F82846FFF7B5FD0DA9C87000BF55
:10A820000DA800F05BF9A6E0842108A841756178C5
:10A830008175032101752078052803D084210DA896
:10A84000C1702BE02079002802D001281ED10EE033
:10A850006279002A01D0012200E000221146E2784C
:10A86000A37810021843FDF70CFF054610E062794B
:10A87000002A01D0012200E000221146E278A378EC
:10A8800010021843FDF710FF054601E0072500BF41
:10A8900000BF2846FFF776FD0DA9C8706BE0842144
:10A8A00008A8417561788175072101752078042811
:10A8B00003D084210DA8C17034E0002005902079D8
:10A8C000002802D0012814D109E0E178A278090219
:10A8D0001143084605A9FDF747FF07460EE0E1785A
:10A8E000A27809021143084605A9FDF74AFF074669
:10A8F00004E00727032008A9087500BF00BFE0781F
:10A90000A178000208430DA9888021790DA88171E2
:10A910006846017D0DA8C1713846FFF733FD0DA9CA
:10A92000C87000BF27E0842108A84175617881754F
:10A93000052101750625E078A178000208430DA9DC
:10A9400088802846FFF71EFD0DA9C8700DA800F0ED
:10A95000C5F810E03AA1002002F07BFC842108A891
:10A960004175617881750321017582210DA8C1703F
:10A9700000F0B4F800BF00BF15B0F0BD10B500F096
:10A98000B8FB00F04FF910BD00B589B0042168464E
:10A99000017181214171022181713DDF08210098FF
:10A9A0000840C10801A8C17000F096F9C1B201A821
:10A9B000017100F093F8002802D1042009B000BD15
:10A9C0000020FBE700B589B002E001A8FFF700FD19
:10A9D00001A800F09CF90028F7D109B000BD10B51E
:10A9E00088B00446207800280ED0012804D0022820
:10A9F00006D0042810D10BE0B520694648700CE061
:10AA0000B3206946487008E0B4206946487004E005
:10AA1000B6206946487000E000BF00BF207BC01C24
:10AA2000C1B268460170A1884180227B01A8A1685B
:10AA300003F0B2FE684600F051F808B010BD000007
:10AA40001B5B306D556E6B6E6F776E206576656E35
:10AA500074210A0010B50446FFF7B4FF10BD10B50D
:10AA60000446E249E24800F032FA002817D1DF48F4
:10AA70004078E0490860DD48401CDF49086000205C
:10AA8000DE49C8610120DE498860DB480068007843
:10AA9000DC49C861D8480068401CD749086010BD2F
:10AAA00000B585B0D8480078002815D1D74800787F
:10AAB000022811D00220D549087069460870D44890
:10AAC000019000210291684600F03DFB002802D071
:10AAD0000020CE49087000BF05B000BD10B58AB097
:10AAE0000446C34804F076F8002802D000200AB0DB
:10AAF00010BD0020694608702078421C214600A83D
:10AB0000013003F049FE6946B94800F0ACF9BF488E
:10AB10000078002801D1FFF7C3FF0120E7E730B537
:10AB200089B00546BB4800680570BA480068401CFB
:10AB3000B849086008460168B7480C1A272C06D2A5
:10AB4000012C33D9401E4078401CA0422ED8B24977
:10AB5000491EB24800F087F900280FD0032168464B
:10AB6000017184214171AC48401E81786846817131
:10AB7000862101A8C170FFF7B1FF0AE002206946F3
:10AB80000874A74805900021069104A800F0DBFA9C
:10AB900000BFA24804F01EF8002804D001209B4901
:10ABA0000870974948609C489A49086009B030BDD0
:10ABB00010B507E000209149886092498969C8B2C0
:10ABC000FFF7ADFF8D4880680028F3D18B48C0693E
:10ABD000002826D000208949C8618648016800689D
:10ABE000401E844A106000290AD08348006800781B
:10ABF0008449C86180480068401C7F49086010E0B3
:10AC000001207F49C86081480078012802D00020D7
:10AC10007E490870764800F0CFF9002801D1FFF78F
:10AC20003FFF10BD10B50420714988607D48086061
:10AC30002720486000204861084600F003F90420FE
:10AC4000764988607848086027204860002048617D
:10AC5000084600F0F7F800206B49087003210B202C
:10AC600000F0B9F80320000270498860082000F065
:10AC7000A9F803210A2000F0AEF8092000F0A2F89C
:10AC800000206B49C8630120C86309205D49C86082
:10AC90000B2048610A20086108208860012059497A
:10ACA0004031C862634857494862042008608420E4
:10ACB00061494860002051498860C86101205049BD
:10ACC00008600321022000F046F8022001218140A3
:10ACD0005A4A116000BF10BD10B5504800F028F965
:10ACE00010BD10B5EFF31080C407E40F72B6012059
:10ACF0004549087001E0FFF75BFF444800780028F1
:10AD0000F9D141490870002C00D162B610BD10B5D0
:10AD10008AB004466946414800F0D9F8002802D0BC
:10AD200000200AB010BD68464078002807DD68465C
:10AD30004078421C00A90131204603F02DFD334824
:10AD40000078012805D100203049087001202C49E5
:10AD500008600120E5E710B5002819DA384A030732
:10AD60001B0F083B9B089B00D2588307DC0EFF2378
:10AD7000A3409A438B071B0E8407E40EA3401A439B
:10AD80002F4B0407240F083CA408A4001A5118E014
:10AD90002A4A03231B02D21883089B00D258830738
:10ADA000DC0EFF23A3409A438B071B0E8407E40E9F
:10ADB000A3401A43214B032424021B198408A40036
:10ADC0001A5110BD03210522120707231B02D218B6
:10ADD0008300D150704710B58A0005231B07072454
:10ADE00024021B1984001A5110BD0000C424002045
:10ADF00074230020C4200020C8200020002100402F
:10AE00000020004000250040CC200020C020002071
:10AE10005FAA0100D0200020EC2400205C23002049
:10AE200055AA0100282400208C2300200005005092
:10AE3000C02F004000E0D7010023004000E100E007
:10AE40001CED00E0202100BF4B1E19468268DA404D
:10AE5000D207D20F002AF7D001228A408260002256
:10AE6000C26002617047F8B504460E46002E01D15B
:10AE70000E20F8BDEFF31080C507ED0F72B6A16884
:10AE800020694018E168884204D1002D00D162B6E3
:10AE90000420EEE7A168491EE06808406168484365
:10AEA000216847186069002804D031463846626935
:10AEB000904704E031463846626803F06DFCE06874
:10AEC000401CE060002D00D162B60020D1E7F8B54B
:10AED00004460D46EFF31080C607F60F72B6E16820
:10AEE0002069884204D1002E00D162B60E20F8BD40
:10AEF000002D15D0A168491E2069084061684843AB
:10AF0000216847186069002804D0394628466269DC
:10AF1000904704E039462846626803F03DFC00BFD4
:10AF20002069401C2061002E00D162B60020DEE7BF
:10AF300001460A69C868801A7047F8B504460D468C
:10AF40001646002D01D10E20F8BDEFF31080C70783
:10AF5000FF0F72B62046FFF7EBFFB04204D8002F78
:10AF600000D162B60E20EFE720698019A168491E62
:10AF700008406168484321684018009060690028D3
:10AF800004D0626928460099904704E06268284628
:10AF9000009903F001FC002F00D162B60020D3E736
:10AFA00070B504460D46002229462046FFF7C5FF2E
:10AFB00070BDC168016170470146CA680869904266
:10AFC00001D1012070470020FCE7000070B5044665
:10AFD0002078030003F0F0FD0504401C343A5900CA
:10AFE0000321C9036068884204D3012149076068CE
:10AFF000884209D900BF102500BFABA23E21102016
:10B00000FDF7E2F800BF00BF6168A06888473DE037
:10B010000321C9036068884204D30121490760689D
:10B02000884209D900BF102500BF9FA242211020ED
:10B03000FDF7CAF800BF00BF6168A068884725E037
:10B04000237C201D07C8FFF7F5F81FE0E279A179FE
:10B05000A08801F08BFA19E00321C90360688842D7
:10B0600004D3012149076068884209D900BF10252F
:10B0700000BF8DA251211020FDF7A6F800BF00BF30
:10B080006268E168A068904700E000BF00BF70BD43
:10B0900030B585B0044640208D4988606946204619
:10B0A000FFF715FF0546002D08D16846FFF78EFF14
:10B0B00040208749C860012005B030BD4020844948
:10B0C000C8600020F8E710B510E000248148FFF7C1
:10B0D000DFFF0443FEF725FB002803D07E48FFF77F
:10B0E000D7FF0443002C00D101E000BFEDE700BF13
:10B0F00010BD10B579480078002800D010BD082098
:10B1000074498860764808601420486000204861CF
:10B110000846FFF797FE08206F498860714808606D
:10B1200014204860002048610846FFF78BFE12207B
:10B1300000F070F80321122000F07CF8012067492C
:10B14000087000BFDAE770B50446002C01D10E206C
:10B1500070BD00262078030003F02EFD05090704CA
:10B1600005060B0000BF00BF00BF5A4E03E05A4E59
:10B1700001E00720ECE700BF21463046FFF773FEF1
:10B180000546002D01D02846E2E7122000F04AF8DB
:10B190000020DDE710B55048FFF70BFF10BD10B5DC
:10B1A0004C48FFF709FF002804D04B48FFF704FF85
:10B1B000002802D1122000F035F810BDEFF3108006
:10B1C000C107C90F72B6484802680068401C464B68
:10B1D0001860002A06D1122001228240434B1A60D7
:10B1E00000BF00BF002900D162B6704710B5EFF371
:10B1F0001080C407E40F72B63B480068401E3A490D
:10B200000860002802D1122000F004F8002C00D1C0
:10B2100062B610BDC206D20E01219140334A803A77
:10B2200011607047C206D20E012191402F4A803230
:10B230001160704710B5002819DA2D4A03071B0F5B
:10B24000083B9B089B00D2588307DC0EFF23A340DA
:10B250009A438B071B0E8407E40EA3401A43244B2A
:10B260000407240F083CA408A4001A511AE01F4A3E
:10B27000803A03231B02D21883089B00D25883070D
:10B28000DC0EFF23A3409A438B071B0E8407E40EBA
:10B29000A3401A43154B803B032424021B19840846
:10B2A000A4001A5110BD00002E2E5C2E2E5C2E2EF6
:10B2B0005C7262635F6D6573685C7372635C657614
:10B2C000656E745F68616E646C65722E6300000069
:10B2D0000005005014250020CC250020D42000209B
:10B2E0002C250020E4250020D820002080E100E06B
:10B2F0001CED00E00246C82A08DAFD481018884212
:10B3000001DD881A00E0FA4800B27047C82909DA5E
:10B31000F7480818904201DD881A01E0F448C0435C
:10B3200000B2F2E7914201DB881A00E0501A0346AE
:10B33000EF48834208D98A4203DD1046C83082B202
:10B3400002E00846C83081B2881A00B2DDE770B565
:10B3500004460D46002C05D0002D03D02078297816
:10B36000884201D0012070BD2078C21F29460831D3
:10B370002046083003F09AF9002801D00120F2E7B6
:10B380000020F0E7F0B589B00646FF200130D9492A
:10B3900088600720019001AA02A9304601F088FACE
:10B3A00000900098002861D100245CE0A10002AA6E
:10B3B0005058D149FEF7F6FE0090009800284CD175
:10B3C000A10002AA505800F029FC0546002D39D0F2
:10B3D000002021E069792A79090211430722121A13
:10B3E0001141C907C90F00290AD001214906C14AE4
:10B3F000916000BF00BF01214906BE4AD16009E04B
:10B4000001210907BB4A916000BF00BF0121090764
:10B41000B84AD160411CC8B20828DBDB00BF69799B
:10B420002A79090211430846314601F0ABFA074672
:10B43000002F06D000BFB1A2A2213846FCF7C4FEFF
:10B4400000BF09E000BF0B2700BFACA2A6210B2064
:10B45000FCF7BAFE00BF00BF00BFA10002AA50580F
:10B4600000F045FB641C019884429FD3FF2001300B
:10B47000A049C860304600F012F809B0F0BD10B520
:10B4800086B00446012069460871A64802900394DC
:10B490000021049101A8FFF756FE06B010BD38B593
:10B4A0000546684601F0D9F9044668460078002848
:10B4B00000D138BD7D20C0002818844203D2204628
:10B4C000FFF7DDFF08E02146974801F0B8FB0028B0
:10B4D00002D02046FFF7D3FF00BFEAE7FFB581B0F7
:10B4E0000C4615461E46019800F052FF0746002FF5
:10B4F00002D0384605B0F0BD00208B49086189486C
:10B50000486000208860C8608848844201D00120DB
:10B5100000E00020784908700846457001208870D6
:10B520000846C6700120824908700020E2E710B585
:10B530000446204600F01AFF10BD6F49C8707047DE
:10B54000F7B58CB00746384600F068FB0446002C7F
:10B5500002D10B200FB0F0BD6179227909021143AD
:10B5600008460AA900F0A4FF0546E279A379120271
:10B570001A4311466A46108DFFF7BCFE064603A823
:10B58000C68238784006C10F03A881730622F91CD1
:10B590000F3003F001F90E98404241B203A8417305
:10B5A0002046083005902078C01FC1B203A801735F
:10B5B00060792179000208436A4610820D9809904B
:10B5C000052D4CD102206946087303A8C682617913
:10B5D00022790902114308460AA900F00EFE054629
:10B5E000002D04D00B9800F082FA2846B2E73846C6
:10B5F00000F08EFBE079A17900020843694688805B
:10B60000029703A8FDF7E2F8002821D100BF617975
:10B61000227909021143084601A900F0EEFD0090CD
:10B620000098002807D000BF34A2FF2107310098FE
:10B63000FCF7CAFD00BF00BF2178C91FCAB26179FB
:10B64000237909021943084621460831FEF77FFB9A
:10B650000D98FFF714FF03A8FFF7C1F9A2E0002E31
:10B660000BDA617922790902114308460D9901F03C
:10B67000D1F80D98FFF703FF94E0002E23D10020AE
:10B6800002900B98002803D00B9800F0C7FA0290A4
:10B69000029800280ED021460298FFF758FE002895
:10B6A00008D001206946087303A8FDF78FF803A8A6
:10B6B000FFF795F9617922790902114308460D993E
:10B6C00001F085F86EE000206946087303A8C68281
:10B6D000617922790902114308460AA900F08DFD1B
:10B6E0000546002D26D00B9800F001FA284631E7D8
:10B6F000FF7F000000050050DD2000202E2E5C2E74
:10B700002E5C2E2E5C7262635F6D6573685C737273
:10B71000635C76657273696F6E5F68616E646C6599
:10B72000722E630085B3010084260020D6BE898E68
:10B73000DC200020384600F0EBFAE079A179000225
:10B74000084369468880029703A8FDF73FF8002860
:10B7500021D100BF6179227909021143084601A96C
:10B7600000F04BFD00900098002807D000BFA34ACE
:10B77000FF2145310098FCF727FD00BF00BF21786D
:10B78000C91FCAB2617923790902194308462146C3
:10B790000831FEF7DCFA0D98FFF771FE03A8FFF7FA
:10B7A0001EF900BF0B9800F0A2F90020D2E6FEB50A
:10B7B00005460E46174692480078002801D1082019
:10B7C000FEBD0020019001A800F027F9002801D15A
:10B7D0000420F5E73346012229460097019800F03E
:10B7E000E4F90446002C04D0019800F080F92046CA
:10B7F000E6E7019800F0A1FE0446002C04D1FDF715
:10B8000075FA0090FFF73BFE019800F070F92046B2
:10B81000D6E710B5FDF76AFA0446FFF730FE10BD13
:10B82000F7B582B0164676480078002802D1082085
:10B8300005B0F0BD6946029800F03AFE0746002FB9
:10B8400001D03846F4E70198002801D10520EFE740
:10B85000019800F0E3F90446002C04D1019800F0AF
:10B8600046F90520E4E72078C01F85B23088A84259
:10B8700004DA019800F03BF90920D9E72A4621466D
:10B880000831039802F088FF3580019800F02FF905
:10B890000020CDE770B504460D46594800780028D1
:10B8A00001D1082070BD5748844201D11020F9E72A
:10B8B000FFF784FC2A460121204600F03CFF0646A3
:10B8C000FFF794FC3046EDE770B504460D464C4852
:10B8D0000078002801D1082070BD4A48844201D177
:10B8E0001020F9E7FFF76AFC2A460121204600F004
:10B8F00032FF0646FFF77AFC3046EDE770B50446A6
:10B900003F480078002801D1082070BD3D4884429E
:10B9100001D11020F9E700220221204600F00BFFA0
:10B9200005462846F1E770B50446354800780028FA
:10B9300001D1082070BD3348844201D11020F9E7BD
:10B94000FFF73CFC01220221204600F0F4FE0546F0
:10B95000FFF74CFC2846EDE770B505460C46284835
:10B960000078002801D1082070BD2648854201D109
:10B970001020F9E7FFF722FC22460221284600F0BA
:10B98000EAFE06462078002801D1012000E00020D0
:10B990002070FFF72BFC3046E6E770B504460D46F5
:10B9A00017480078002801D1082070BD154884424E
:10B9B00001D11020F9E72A460021204600F0BBFE05
:10B9C00006463046F1E770B504460D460C4800784F
:10B9D000002801D1082070BD0A48844201D11020FE
:10B9E000F9E7FFF7EBFB2A460021204600F0B3FE03
:10B9F0000646FFF7FBFB3046EDE70000FCB6010012
:10BA0000DC200020FFFF0000002003E00021D04ADE
:10BA10001154401C1D28F9D3704770B5054600210C
:10BA200019E0EFF31080C407E40F72B6C848405C19
:10BA300000280CD10120C64A505428204843C54A4A
:10BA400080182860002C00D162B6012070BD002C47
:10BA500000D162B6491C1D29E3D300BF042600BFF4
:10BA6000BDA244210420FCF7AFFB00BF00BF0020B3
:10BA7000ECE770B50446B749601A282102F006FFCA
:10BA800005461D2D04D228206843B249401870BDD8
:10BA90000020FCE7F8B50546AE49681A282102F0F7
:10BAA000F5FE04461D2C01D30020F8BDEFF31080F5
:10BAB000C607F60F72B6A648005D002803D0A4485A
:10BAC000005DFF2809D100BF042700BFA2A26221A8
:10BAD0000420FCF779FB00BF00BF9D48005D401CBF
:10BAE0009B490855002E00D162B60120DDE7F8B56C
:10BAF00006469849701A282102F0C8FE04461D2CFB
:10BB000001D30020F8BDEFF31080C507ED0F72B62A
:10BB10008F48005D00280ED100BF082700BF8EA20D
:10BB200076210820FCF750FB00BF00BF002D00D19C
:10BB300062B60020E6E78648005D401E844908554D
:10BB4000002D00D162B68248005D002801DD012091
:10BB5000D8E70020D6E770B504467E49601A282150
:10BB600002F094FE05461D2D01D3002070BD7848DB
:10BB7000405DFBE77CB50446684671DF0546002D55
:10BB800001D028467CBD2078402188436946097849
:10BB900089014022114008432070062200A901318A
:10BBA000E01C02F0F9FD0020ECE7FFB581B005468E
:10BBB0001F460A9E002D02D10E2005B0F0BD2C4676
:10BBC0000934172E01DD0920F7E72846FFF7D2FFD9
:10BBD00030460E306870287800090001801C2870FB
:10BBE000F01D2070162060706448A070000AE0709C
:10BBF00002982071000A60710398A071000AE07138
:10BC0000002E09DD002F07D0172E05DC32463946FD
:10BC10002046083002F0C0FD0020CEE70246002A90
:10BC200000D17047114609315078062802DD50785E
:10BC3000252801DD0020F4E70FE00B7810460930DD
:10BC4000081A1B185078801F834201D90020E8E7AA
:10BC50000878401C4301181A091848781628ECD1B6
:10BC6000C8788B7800021843444B9842E5D10846C7
:10BC7000D7E730B504462046FFF7D0FF0546002D34
:10BC800001D10B2030BD2046093085420ED02878E6
:10BC9000401CC1B2002004E02B5C22460932135440
:10BCA000401C8842F8D32546093500BF2878C01DBE
:10BCB00060700020E6E730B505462846FFF7AEFF86
:10BCC0000446002C01D12E4830BD60792179000254
:10BCD0000843F9E702461146093110E04878162872
:10BCE00006D1C8788B7800021843244B984201D0C3
:10BCF000012070470878401C4301181A0918507831
:10BD0000C01F13460933C0188842E7D80020F0E767
:10BD100010B504462046FFF7DDFF002802D020467C
:10BD2000FFF7A7FF2046FFF725FF10BD70B50446BB
:10BD30000849601A282102F0A9FD05461D2D04D2EC
:10BD4000282068430349401870BD0020FCE700002C
:10BD5000202B0020982600202E2E5C2E2E5C2E2ECE
:10BD60005C7262635F6D6573685C7372635C6D6562
:10BD700073685F7061636B65742E6300E4FE00009E
:10BD8000FFFF000001460879C0064B685B091843B5
:10BD90000B681A1A088940048B68DB0B18434B6840
:10BDA00058400860CB688868C0184860C868801828
:10BDB000886008688018C860C8687047F8B507468A
:10BDC0000D4600241AE000BF684639DF6846007857
:10BDD0000028F9D0281B69460978884202D2281B1E
:10BDE000C0B200903819694609783ADF0646002E3D
:10BDF00001D00320F8BD684600782418AC42E2D395
:10BE00000020F7E7F8B504460020009004216846BA
:10BE1000FFF7D4FF0546002D01D02846F8BD09489C
:10BE20002060009860600098A0600098E0600026A4
:10BE300003E02046FFF7A6FF761C142EF9D300205E
:10BE4000ECE70000ED5EEAF10188F94A914202D187
:10BE5000C821018002E00188491C0180704710B5AB
:10BE60000446002C00D110BD2069002804D02069B0
:10BE7000FFF73DFE002020612046FDF7BAFD00BF20
:10BE8000F1E770B58020EB49886000BF00BF8020DB
:10BE9000E849C860E848068815E014207043E7497F
:10BEA0004018006900280DD114217143E34A881815
:10BEB0000021FDF73BFDE0480088401CDE4908807A
:10BEC000B0B270BD761C022EE7D3DD4804680CE0EA
:10BED00000BF0A206043DB494018C0884404640C5A
:10BEE00000BF032C01D10220EBE70A206043D549B3
:10BEF000401800890228EBD00A2060434018C0880F
:10BF0000C00B0028E4D10A2060434018058900BF17
:10BF1000022D01D2012000E000200646002E05D1AE
:10BF200000BFC9A28E21FCF74FF900BF00BF02215C
:10BF30000A206043C34A8018018114216943BF4A23
:10BF40008818FFF78CFF14216943BC4A8818002128
:10BF5000FDF7ECFCA8B2B4E770B505460E46FFF756
:10BF60002DF9002E14D0C2480088A84210D1C14833
:10BF7000008803280CDABF4800880A214843B149E9
:10BF8000085AA84204D1FFF731F9BA48008870BDB9
:10BF9000B948008884B210E0A9480068A04203D1E3
:10BFA000FFF724F90320F2E700BF0A206043A54908
:10BFB000401880884404640C00BF0A206043A149F3
:10BFC000085AA842E8D1002E03D0A9480580A94804
:10BFD0000480FFF70BF92046D9E770B5054601212B
:10BFE0002846FFF7B9FF0446032C43D19448008844
:10BFF00084B20CE000BF0A20604392494018C08818
:10C000004404640C00BF032C01D1204670BD0A20FB
:10C0100060438C494018C088C00B0028EAD10A2030
:10C0200060430D520A206043401880880121C903F3
:10C0300088430A216143834A8918888000210A20A5
:10C040006043801841800A206043114640180089EF
:10C0500002280FD00A21614389180989142251430B
:10C06000764A8818FFF7FBFE02210A206043754AD2
:10C070008018018172480068844225D07E4800689B
:10C08000844237D00A2060436E49401880884004BB
:10C09000400C0A2148436B494018C088C00BC003BC
:10C0A0000A216143674A8918C9884904490C084331
:10C0B0000A216143891889884904490C0A2251439D
:10C0C000604A8918C88015E00A2060435D4940181D
:10C0D000C0884004400C5A4908600A20604359490E
:10C0E00040188088C00BC003C01C0A216143554A18
:10C0F000891888806048006884425AD00A206043CA
:10C1000050494018C0884004400C03281FD00A2022
:10C1100060434018C0884004400C0A214843494904
:10C1200040188088C00BC0030A216143454A891822
:10C1300089884904490C08430A2161438918C98840
:10C140004904490C0A2251433E4A891888800A2032
:10C1500060433C494018C088C00BC003C01C0A2182
:10C160006143384A8918C8800A2060431146401844
:10C170008088C00BC003404909884904490C084322
:10C180000A216143891888803B4800680A21484396
:10C1900011464018C088C00BC0036104490C084315
:10C1A000354909680A225143264A8918C88032480D
:10C1B0000460314800680A21484322494018C08879
:10C1C000C00BC003C01C2C4909680A2251431D4AF8
:10C1D0008918C8801A4800680A2148431146401847
:10C1E0008088C00BC003C01C154909680A2251434E
:10C1F000144A89188880204608E7F8B507460E4695
:10C20000002E01D10E20F8BD0948874201D110202F
:10C21000F9E701213846FFF79FFE0446032C2DD194
:10C220003846FFF7DAFE0446032C27D10420EAE75C
:10C23000FFFF000000050050EC200020602B0020D4
:10C24000E8200020402B00202E2E5C2E2E5C2E2E6F
:10C250005C7262635F6D6573685C7372635C686176
:10C260006E646C655F73746F726167652E63000046
:10C27000F0200020EE200020E42000200A2060436F
:10C28000F74940180589022D0BD1FFF7FAFD054645
:10C29000022D01D10420B6E70A206043F04940187E
:10C2A0000581FCF723FD14216943EE4A00908818AC
:10C2B0000099FDF73BFB31880A206043E84A80186B
:10C2C000418014206843E74940180069002806D0DF
:10C2D00014216943E34A89180869FFF708FC70686C
:10C2E000FFF7D8FB0A206043DD4A8018008914223A
:10C2F0005043DC4A801871680161002083E7FEB575
:10C3000005462E463046FFF789FC0446002C29D00E
:10C31000E079A179000208436946088001966179B5
:10C3200022790902114308460121FFF715FE07464D
:10C33000032F09D00A207843C9494018408869462C
:10C3400008806846FFF780FD68460088A071000AF3
:10C35000E071617922790902114308466946FFF7C5
:10C360004CFF00BF3046FFF7C2FBFEBD10B50446D0
:10C37000BD48844202D3BD48844201D9072010BD84
:10C3800003220121C9022046FDF7A6FA0020F6E7A4
:10C3900070B50546FEF712FF2846FFF7E7FF044693
:10C3A000002C03D0FEF722FF204670BD002006E0DF
:10C3B000002214214143AB4BC9180A61401C0228DA
:10C3C000F6D3002046E00022D2430A214143A44B89
:10C3D0005A5200220A214143C9184A800A21414386
:10C3E0001A468918C9880122D20391430A2242437E
:10C3F000D218D1800A2141431A468918898801221E
:10C40000D20391430A224243D218918002220A2188
:10C410004143C9180A810A2141431A468918C9882B
:10C42000C90BC903421E5204520C11430A22424353
:10C43000D218D1800A2141431A4689188988C90B2C
:10C44000C903421C5204520C11430A224243D2181F
:10C450009180401C0328B6D3002085490860022043
:10C4600084490860824800680A2148437C49401892
:10C47000C088C00BC003C01C7D4909680A22514313
:10C48000774A8918C8807B4800680A2148431146CA
:10C4900040188088C00BC003C01C764909680A2276
:10C4A00051436F4A89188880FEF7A0FE00207CE780
:10C4B00070B506460D46002D01D10E2070BD00203E
:10C4C000286068606C48864201D11020F6E7FEF7CC
:10C4D00075FE00213046FFF73FFD0446032C03D1D3
:10C4E000FEF784FE0520E9E70A2060435C49401816
:10C4F000408828800A20604340180089022818D00C
:10C500000A216143564A8918098914225143554A20
:10C5100089180869FFF7BEFA00280AD00A2060438C
:10C520004F4940180089142148434E49401800697A
:10C530006860FEF75BFE0020C0E730B585B00446BA
:10C54000002C02D10E2005B030BD022069460870D3
:10C5500002944A4801906846FEF7F5FD0546002D15
:10C5600002D12046FFF796FA2846ECE7F7B582B0ED
:10C570000E461546032E02DB072005B0F0BD3E49EE
:10C580000298884201D11020F7E701210298FFF7B5
:10C59000E3FC0446002E04D0012E1FD0022E5ED1F3
:10C5A00039E0032C07D10298FFF717FD0446032C4E
:10C5B00001D10420E1E70A20604329494018C088DE
:10C5C0000121C9038843E9030122D2031140084332
:10C5D0000A216143224A8918C880A9E0032C07D1A7
:10C5E0000298FFF7FAFC0446032C01D10420C4E7AB
:10C5F0000A2060431A49401880880121C9038843F2
:10C60000E9030122D203114008430A216143144A7D
:10C61000891888808CE0002D18D0032C01D10020CF
:10C62000ABE70A2060430E4940180089022801D177
:10C630000020A2E70A216143094A891809891422C6
:10C640005143084A8818FDF7D1F96EE000200190A7
:10C6500001A8FFF7E2F9002812D104208DE765E078
:10C66000402B0020602B00208813000000879303DC
:10C67000E4200020E8200020FFFF0000FFC20100AE
:10C68000002003460246009002990198FFF78DFAB8
:10C690000746002F04D00198FFF729FA38466CE7C7
:10C6A000032C04D10198FFF72AFE002065E70A2039
:10C6B0006043C6494018008902280FD1FFF7E1FB0B
:10C6C0000A216143C14A891808810A206043114642
:10C6D00040180089022801D104204EE70A20604357
:10C6E000BA494018008914214843B94940180069E3
:10C6F000002803D00198FFF7FAF90AE00A20604306
:10C70000B24A8018008914225043B14A8018019916
:10C7100001610A216143AD4A8918098914225143F4
:10C72000AB4A8818FDF765F900BF01E0072024E750
:10C7300000BF002021E770B586B004460E461546BE
:10C74000042168460171048101A88671C571FEF754
:10C75000FAFC06B070BDF8B507460E461546032E26
:10C7600001DB0720F8BD002D01D10E20FAE7994822
:10C77000874201D11020F5E7FEF720FD0021384661
:10C78000FFF7EAFB0446032C03D1FEF72FFD05203B
:10C79000E8E7002E02D0012E10D107E00A20604306
:10C7A0008A494018C088C00B28700BE00A206043FB
:10C7B000864940188088C00B287003E0FEF716FDFC
:10C7C0000720CFE700BFFEF711FD0020CAE7F8B54C
:10C7D00006460F467F48864201D11020F8BD012150
:10C7E0003046FFF7B9FB0446032C01D10520F5E7DD
:10C7F0000A206043754940180589022D01D10520A2
:10C80000ECE714216943724A88183946FDF772F83B
:10C810000020E3E7F8B506460F466E48864201D190
:10C820001020F8BD01213046FFF796FB0446032C8B
:10C8300001D10520F5E70A206043644940180589C5
:10C84000022D01D10520ECE714216943604A8818C4
:10C850003946FDF780F80020E3E770B5054600266D
:10C860000020287000241FE014216143584A8818D2
:10C87000FCF7B4FF002816D0142060435449401838
:10C88000006900280FD02878002806D014206043C3
:10C890000858801B5049884205D90120287014206F
:10C8A00060434B490E58641C022CDDD3304670BDEA
:10C8B000F7B582B004461546002600275DE004E087
:10C8C00046480088801E4549088044480088022860
:10C8D000F6DA42480088142148433D49401800696F
:10C8E000002844D03D49098814225143384A881809
:10C8F000FCF774FF00283AD03848008814214843D8
:10C9000033490858201A3449884230D8002101910F
:10C9100032490988142251432D4A8818224601A918
:10C92000FDF744F86846007900281FD02B49098894
:10C9300014225143264A89180869FFF7ABF82748A3
:10C940000088142148432249401802693046761C69
:10C950008100039842502868B04207D11F480088E0
:10C96000401C1E490880002005B0F0BD00BF1B48D8
:10C970000088401C194908807F1C022F9FD32E601D
:10C980000020F1E7F8B506460F461248864201D16D
:10C990001020F8BD01213046FFF7DEFA0446032CD3
:10C9A00001D10520F5E70A206043084940180589B0
:10C9B000022D01D10520ECE714216943044A8818AF
:10C9C0003946FCF7E0FF0020E3E70000402B0020A1
:10C9D000602B0020FFFF0000FFFFFF7FF220002000
:10C9E000A94A1268002A07D0A74B02681B681B6877
:10C9F000D21AA64B9A4205D9A34A12680261A24AEA
:10CA000010607047A04A116800E009690A69002AAD
:10CA100006D00A6912680368D21A9C4B9A42F4D86D
:10CA20000A690261086100BFEBE7014696480068A9
:10CA3000884205D1944B086918600020086170474E
:10CA40009148026808E01069884204D108691061C1
:10CA500000200861F3E71269002A09D01069002854
:10CA600006D0086813691B68C01A884B9842EAD937
:10CA70000520E4E730B585B00546834840680028C6
:10CA800001D005B030BD27E07F4804680120694629
:10CA9000087060680190E168039102956846FEF7AE
:10CAA00052FB002800D0ECE777492069086000209D
:10CAB0002061A06800280ED000BFA168206840183F
:10CAC0002060284664302168081A70498842F4D8EA
:10CAD0002046FFF785FF00BF6B480068002808D09C
:10CAE00069480068016828466430081A6749884226
:10CAF000CAD800BFC5E710B504462046FFF7BAFF05
:10CB0000204600F001F810BD10B504465E480068EC
:10CB1000002816D05C4800680068201A5B498842EB
:10CB200008D9594800680023594A01680120FCF7D8
:10CB300091F906E00023564A214664310120FCF7B2
:10CB400089F910BD70B5044608205249886000BFBD
:10CB500000BF08204F49C8602546FCF7C7F80646C5
:10CB60002846FFF73DFF3046FFF784FF3046FFF7CA
:10CB7000CBFF70BD70B5044608204649886000BFF1
:10CB800000BF08204349C860FCF7B0F805462046BE
:10CB9000FFF74BFF2846FFF7B7FF70BD70B504469F
:10CBA00008203C49886000BF00BF08203949C860A0
:10CBB000FCF79CF806462046FFF737FF2046FFF7B4
:10CBC0000FFFEFF31080C507ED0F72B62E484068D7
:10CBD000401E2D494860002D00D162B63046FFF757
:10CBE00049FF3046FFF790FF70BD002026490860DE
:10CBF000704710B586B00446002C02D10E2006B056
:10CC000010BD002020610220694608712248029070
:10CC1000039401A8FEF797FAF1E710B586B0044631
:10CC2000002C02D10E2006B010BD0220694608710A
:10CC30001A480290039401A8FEF785FAF3E7F0B5CD
:10CC400085B004460E46002C02D10E2005B0F0BD82
:10CC5000022069460870124801900294EFF3108098
:10CC6000C707FF0F72B66846FEF76DFA0546002D3E
:10CC700005D105484068401C034948602660002FE4
:10CC800000D162B62846E1E7F4200020FFFFFF7FD5
:10CC9000F7CA01000005005045CB010075CB01002B
:10CCA0009DCB01000A48026803210A43026009483B
:10CCB000804709480047FEE7FEE7FEE7FEE7FEE79C
:10CCC000FEE7000005480649044A064B704700008D
:10CCD000240500408DCD0100C1800100E82B00201B
:10CCE0000040002000380020324833490860704777
:10CCF0003248008CC0B2012812D13048808C000725
:10CD0000000F00280CD12D48806AF02108404028EF
:10CD100006D12A48C06A0840002801D10120704786
:10CD20000020FCE72548008CC0B201282CD1234804
:10CD3000808C0007000F002826D12048806AF0214F
:10CD40000840002806D11D48C06A0840002801D1CB
:10CD5000012070471948806AF0210840102806D148
:10CD60001648C06A0840002801D10120F1E71348A5
:10CD7000806AF0210840302806D11048C06A084077
:10CD8000002801D10120E4E70020E2E710B5FFF719
:10CD9000C9FF002805D00A480A494860C8130A4953
:10CDA0008861FFF7A5FF002802D0012007498860AD
:10CDB00010BD00000024F400FC200020C00F00F093
:10CDC000DFFF07C000050040006C00400006004087
:10CDD00070B504460E46A568681C6168814206D39A
:10CDE00020684655681CA060E068401CE0606168EF
:10CDF000A06888420DD1A2682168206900F0E1FB9B
:10CE0000A168884203D00020C043E06001E0002018
:10CE1000A06070BDFFB585B0064617461D460E9C46
:10CE20000698029001200390019007E0394602988D
:10CE300001F02CFD02900198401C01900298B8422C
:10CE4000F4D20198854200D901950F98C007C00F10
:10CE500000281DD1002C1BD002210F980840022869
:10CE600004D1002D02D13020009001E0202000905C
:10CE700008E0641E30460099FFF7AAFFF06800281A
:10CE800000DA04E0002C02D00198A042F1D300BFE8
:10CE9000F068002848DB0FE0012D01D96D1E08E085
:10CEA0000399069801F0F2FC04900498B84200D26D
:10CEB00003E0039878430390EEE700BF00BF0399B7
:10CEC000069801F0E3FC04900399049848430699FE
:10CED000081A0690E64A0498115C3046FFF778FF7E
:10CEE000F068002800DA07E03946039801F0CEFC2C
:10CEF000039003980028E2D100BF0F98C007C00F2D
:10CF0000002811D0002C0FD008E0641E20213046EC
:10CF1000FFF75EFFF068002800DA04E0002C02D082
:10CF20000198A042F1D300BF09B0F0BDFFB585B0B4
:10CF300006460F460F9D0E9C002F01DA784200E056
:10CF4000384603900120049007E00799039801F008
:10CF5000A7FC03900498401C04900799039888420A
:10CF6000F3DA04990898884201D908980490002CB3
:10CF700006D0002F03DB04202840042800D1641EC3
:10CF800002202840002802D00898002815D0E80781
:10CF9000C00F002811D1002C0FD008E0641E202102
:10CFA0003046FFF715FFF068002800DA04E0002C97
:10CFB00002D00498A042F1D300BFF06800283ADB09
:10CFC000002F05DA7F422D213046FFF701FF07E0F1
:10CFD00004202840042803D12B213046FFF7F8FE17
:10CFE000F068002827DB02202840022818D1E80733
:10CFF000C00F002814D10898002811D1002C0FD0A0
:10D0000008E0641E30213046FFF7E2FEF068002899
:10D0100000DA04E0002C02D00498A042F1D300BF53
:10D02000F068002807DB0195009439463046089BDC
:10D03000079AFFF7EFFE09B0F0BDF7B59AB00D46BD
:10D04000144602A8159040201690002017901A98B8
:10D0500019900020189000BF2E786D1C002E00D172
:10D06000E4E0252E79D100270120149000BF2E780E
:10D07000232E12D02B2E0CD02D2E02D0302E10D1DC
:10D0800003E0012007436D1C0EE0022007436D1CE6
:10D090000AE0042007436D1C06E0082007436D1CCE
:10D0A00002E00020149000BF00BF14980028DED1D9
:10D0B000129000BF2E78302E01DB392E00DD08E003
:10D0C0006D1C0A211298484331463039401812909D
:10D0D000F0E700BF002013902E782E2E11D16D1C8A
:10D0E00000BF2E78302E01DB392E00DD08E06D1CEC
:10D0F0000A21139848433146303940181390F0E71D
:10D1000000BF2E7800BF6C2E01D0682E02D12E7881
:10D110006D1C00E000E0F6E700BF702E63D008DC75
:10D12000252E72D0582E38D0632E09D0642E71D19E
:10D1300014E0732E40D0752E1FD0782E6AD12BE0CC
:10D140002168081D2060086814901498C0B20190EE
:10D1500015A80199FFF73CFE5DE05FE02168081D1E
:10D160002060086814901298019700900A2215A870
:10D17000139B1499FFF7DAFE4DE02168081D20602B
:10D18000086814901298019700900A2215A8139B22
:10D190001499FFF73FFE3EE000BF2168081D2060A4
:10D1A00008681490129801970090102215A8139BFC
:10D1B0001499FFF72FFE2EE02168081D20600868F3
:10D1C000019000BF019806780198401C0190002E44
:10D1D00000D106E0314615A8FFF7FAFD189800289F
:10D1E000F0DA00BF17E02168081D2060086814907D
:10D1F000002008210B4610220091019015A81499D7
:10D20000FFF708FE07E000E004E0252115A8FFF77E
:10D21000DFFD00E000BF00BF6D1C03E0314615A834
:10D22000FFF7D6FD1898002800DB15E700BF189817
:10D2300000280BDD1798002804D002A9179A1A9825
:10D2400000F0BFF9179918984018189018981DB059
:10D25000F0BD0FB438B5044606A800906A462046D3
:10D260000599FFF7EAFE38BC08BC04B01847000077
:10D2700020EC010010B5F74C022020616061F6A09F
:10D28000A061F849E1610121C90221620021A16286
:10D290006162E162F0A0A064F349E16410212165BC
:10D2A0000021A1656165E165F0A1E01D01F02CFAA6
:10D2B000EFA1204601F028FA2020A07110BDF7B59B
:10D2C00082B00446174600200190E56800BF20693F
:10D2D00000900098A84203D90098401B461E04E025
:10D2E000A1680098281A401C0E1AA068401BB04282
:10D2F00001D9304601E0A068401B0646BE4201D27B
:10D30000304600E0384606466168481932460399BF
:10D3100001F042FA01988019019003988019039056
:10D32000BF1BAD19A068A84200D10025E560002F01
:10D33000CDD1019805B0F0BDF7B582B004461546D1
:10D34000E668A068871BAF4208D9616888192A4639
:10D35000039901F021FA7019E06010E0019761680B
:10D360008819019A039901F017FAE81B0190039AB2
:10D37000D1196068019A01F00FFA0198E06005B0D8
:10D38000F0BD38B505460C46FF2168460170BA4825
:10D39000015D68464170022269462846FFF78FFF0B
:10D3A00038BD10B501460A69CB689A4204D88C682A
:10D3B000641EE41AA01801E0D41A601E10BDF7B56F
:10D3C00084B0174600BFA3480078002801D1FFF7BA
:10D3D00051FF00BF1821049848439E494831461820
:10D3E000059801903569F06802900020039002983A
:10D3F000854219D9B068441BBC4201D2204600E0E6
:10D4000038460446706841192246019801F0C4F973
:10D410000398001903900198001901903F1B2D19E2
:10D42000B068A84200D100250298441BBC4201D23A
:10D43000204600E038460446002C0DD070684119A3
:10D440002246019801F0A8F9039800190390019869
:10D45000001901903F1B2D190398002800D0356159
:10D46000039807B0F0BDF8B504460D46164632469F
:10D4700029462046FFF7A3FF07463846F8BDF7B513
:10D4800084B01546059803901821049848437149C3
:10D490001831441820690290E6680298B0423ED8DC
:10D4A000A068401E871BAF4212D3606881197619AD
:10D4B00000BF0398007808700398401C491C039033
:10D4C000681E051EF5D17019E060012007B0F0BD9F
:10D4D00002983F18AF4231D3A068801B0190019899
:10D4E000A84208D9616888192A46039901F054F9BD
:10D4F0007019E06011E061688819019A039901F0E0
:10D500004BF901982A1A019B0398C1186068009092
:10D5100001F042F90198281AE0600120D6E702984C
:10D52000801B471EAF4209D3616888192A460399B8
:10D5300001F032F97019E0600120C7E70020C5E76B
:10D54000F7B582B007461646039801901820784335
:10D55000404918314018009000984069002804D0D4
:10D56000012811D0022826D11EE00098FFF719FFEC
:10D570000546B54201D2002405E034463246019901
:10D580000098FFF7D9FE18E00098FFF70AFF05465C
:10D59000B54201D2284600E03046044622460199B1
:10D5A0000098FFF7C9FE08E0324601990098FFF79E
:10D5B00086FE044601E0002400BF00BF204605B0FF
:10D5C000F0BDF8B504460D46164600BF2148007868
:10D5D000002801D1FFF74EFE00BF32462946204603
:10D5E000FFF7AEFF07463846F8BD70B505460C4656
:10D5F000204601F0AFF80646324621462846FFF79E
:10D60000E0FF70BD38B5012269460020FFF72BFF0F
:10D610000446012C02D16846047801E00024E4436A
:10D62000204638BD10B500BFFFF7ECFF0028FBDB3C
:10D6300010BD70B500BF07480078002801D1FFF782
:10D6400019FE00BF0348856D406DA84216D0012425
:10D6500015E00000002E00205465726D696E616C4B
:10D660000000000000300020F02F00205254540031
:10D670005345474745520000002100200024204622
:10D6800070BD10B5014618204843F84C0219D36804
:10D690001069181A10BDFFB581B005460E46174631
:10D6A00000BFF24848380078002801D1FFF7E2FDBA
:10D6B00000BF002400BF18206043EC4940184068B8
:10D6C000002800D105E0641CE84848384069A042C1
:10D6D000F1DC00BFE54848384069A0421BDD182056
:10D6E0006043E2490D5018206043401846601820FE
:10D6F0006043401887600022182060434018026190
:10D70000182060434018C26018206043D74A801830
:10D710000499416101E00024E443204605B0F0BDD6
:10D72000FFB581B005460E46174600BFCF484838C2
:10D730000078002801D1FFF79DFD00BF002400BF45
:10D7400018206043C949303940184068002800D18A
:10D7500005E0641CC54848380069A042F0DC00BF01
:10D76000C24848380069A0421DDD18206043BF4907
:10D7700030390D501820604340184660182060432F
:10D78000401887600022182060434018026118206A
:10D7900060434018C26018206043B44A303A801891
:10D7A0000499416101E00024E443204605B0F0BD46
:10D7B000FFB581B004460E46174600BFAB48483857
:10D7C0000078002801D1FFF755FD00BFA748483871
:10D7D0000069A04225D9002C1AD018206043A34923
:10D7E00030390E50182060434018476018216143BB
:10D7F0009E4A303A891804988860002218206043B5
:10D800009A49303940180261182060434018C260BC
:10D8100018206043954A303A80180A9941610025E2
:10D8200001E00025ED43284605B0F0BDFFB581B00D
:10D8300004460E46174600BF8C484838007800283A
:10D8400001D1FFF717FD00BF884848384069A04262
:10D8500021D9002C17D01820604384490E5018207D
:10D8600060434018476018216143804A8918049832
:10D8700088600022182060437C494018026118200B
:10D8800060434018C26018206043784A80180A99A3
:10D890004161002501E00025ED43284605B0F0BDBB
:10D8A00070B504460E4600BF70484838007800281E
:10D8B00001D1FFF7DFFC00BF6C4848380069A04287
:10D8C00006D918206043694930390E50002501E01F
:10D8D0000025ED43284670BD70B504460E4600BFD6
:10D8E000624848380078002801D1FFF7C3FC00BF28
:10D8F0005E4848384069A04205D9182060435B491A
:10D900000E50002501E00025ED43284670BD10B5FE
:10D9100000BF564848380078002801D1FFF7AAFC1C
:10D9200000BF10BDF8B5044600BF50484838007825
:10D93000002801D1FFF79EFC00BF0027FF206946A9
:10D940000870102C21DA4A48005D4870474D303D80
:10D95000287D8007800F022806D1464804700222E5
:10D960002846FFF7ACFC12E02846FFF71AFD0646F2
:10D97000022E07D33F480470022269462846FFF76B
:10D98000DBFC04E00027FF4301E00027FF433846AB
:10D99000F8BDF3B581B0074600BF34484838007879
:10D9A000002801D1FFF766FC00BF102F59DA2F487D
:10D9B00030380090029800F0CDFE06460098FFF740
:10D9C000F0FC05460098007D8007800F002804D0F9
:10D9D000012817D0022840D12FE0301D854201D206
:10D9E00000240EE039460098FFF7CBFC324602993E
:10D9F0000098FFF764FC04461E4801780098FFF782
:10DA0000C0FC2DE0042D02D20024E44314E039468A
:10DA10000098FFF7B6FC281FB04201D9304600E05D
:10DA2000281F024602990098FFF749FC0446114856
:10DA300001780098FFF7A5FC12E039460098FFF73F
:10DA4000A0FC324602990098FFF739FC04460948C9
:10DA500001780098FFF795FC02E00024E44300BF42
:10DA600001E00024E4432046FEBD0000482E0020D3
:10DA70000021002010210020F7B584B004460F4695
:10DA800006980678B01C1F2803DC6078801C1F28CD
:10DA900002DD0C2007B0F0BD1F20801B801E85B268
:10DAA0000295B11C781802A97DDF03900398002825
:10DAB00001D00398EEE72078022808D16846008953
:10DAC000A84204DC09200190684605890BE0082083
:10DAD00001906078002804D06078A84201DC657865
